:100D00001201000200000040A177A30100000102CF
:100D100000010A060002000000400100090227004D
:100D200001010080320904000003FF0000000705F4
:100D30000102400000070581024000000705820211
:100D400000020009022700010100803209040000AE
:100D500003FF0000000705010240000007058102B3
:100D600040000007058202400000040309040E034E
:100D70004B0069006E006700730074002C034B0089
:100D800069006E0067007300740020004C006F0063
:100D9000670069006300200041006E0061006C0084
:0A0DA00079007A006500720000007F
:0A10C7008E368F378C388D398B3A46
:1010D100E4FDE51D6012E538FF7E000DEE2494F578
:1010E10082E43420F583EFF0E539AE050D74942EDA
:1010F100F582E43420F583E539F07A207B94AF1E44
:0E1101001214E4AB37AA36AD3AAF1E1214C872
:01110F0022BD
:06107D00AB07AA06AC055A
:10108300E4FDE51D6010EA7E000DEE2480F582E4A8
:101093003420F583EAF0EBAE050D74802EF582E47F
:1010A3003420F583EBF0AF050D74802FF582E43423
:1010B30020F583ECF07A207B80AF1E1214E4AF1E80
:0310C3001211DA2D
:0110C6002207
:0A1212008E368F378C388D398B3AF9
:10121C00E4F53BF53BE53BC3953A50200537E53704
:10122C00AE367002053614FFE539253BF582E43500
:0C123C0038F583E0FD12107D053B80D9E1
:011248002283
:1004AE0090E6BBE0FE90E6BAE07C002400F533EC6B
:1004BE003EF53290E6BFE0FE90E6BEE02400F53554
:1004CE00EC3EF53490E6B8E064C07075D3E5359433
:1004DE0000E534940050030205C1E5BA20E0FBD3D9
:1004EE00E5359440E5349400401175314074C025D3
:1004FE0035F53574FF3534F5348008853531E4F53E
:10050E0034F535E4FFEFC39531501074402FF5826A
:10051E00E434E7F58374CDF00F80EA7EE77F40ABDD
:10052E0031AD33AC321210C7E490E68AF000000011
:10053E0090E68BE531F02533F533E43532F5328034
:10054E008B90E6B8E06440706A43B240C286D3E551
:10055E00359400E53494004057E490E68AF00000AC
:10056E000090E68BF0000000E5BA20E0FB000000F2
:10057E0090E68BE0F531FF7E00D3E5359FE5349EA6
:10058E00400CE5359FF535E5349EF534800885350C
:10059E0031E4F534F5357CE77D40AB31AF33AE3227
:1005AE00121212E5312533F533E43532F532809EE1
:0305BE0053B2BF76
:0105C1002217
:1015490012160C90E678E05410FFC4540F4450F57D
:071559001E13E433F51D220F
:0A15F20000010202030304040505D2
:10033C00E4F52CF52BF52AF529C203C200C202C242
:10034C0001120ECA7E0D7F008E0A8F0B75120D7571
:10035C00131275080D75091C75100D751143751464
:10036C000D75156AEE54C07003020441752D0075AD
:10037C002E808E2F8F30C374A89FFF740D9ECF24B8
:10038C0002CF3400FEE48F288E27F526F525F524C0
:10039C00F523F522F521AF28AE27AD26AC25AB24ED
:1003AC00AA23A922A821C312100C5037E53025240A
:1003BC00F582E52F3523F583E0FFE52E2524F58224
:1003CC00E52D3523F583EFF0E4FAF9F8E524240163
:1003DC00F524EA3523F523E93522F522E83521F514
:1003EC002180B3852D0A852E0B74002480FF740D9B
:1003FC0034FFFEC3E5139FF513E5129EF512C3E51A
:10040C000D9FF50DE50C9EF50CC3E50F9FF50FE563
:10041C000E9EF50EC3E5099FF509E5089EF508C388
:10042C00E5119FF511E5109EF510C3E5159FF51527
:10043C00E5149EF514D2E843D82090E668E0440910
:10044C00F090E65CE0443DF0D2AF90E680E020E135
:10045C0005D2061212DE90E680E054F7F0538EF8C7
:10046C00C20312133B121549121030300105120051
:10047C0080C2013003F2120BFD50EDC20312146660
:10048C0020001690E682E030E704E020E1EF90E6F1
:10049C0082E030E604E020E0E4121394121614809B
:0104AC00C788
:0104AD00222C
:0B15D10090E50DE030E402C322D322BD
:1000800090E6B9E0700302016B14700302021424BD
:10009000FE70030202AD24FB7003020165147003BD
:1000A00002015F147003020153147003020159240A
:1000B000056003020328121616400302033490E67B
:1000C000BBE024FE603B14605624FD6016146040C3
:1000D00024067075E50A90E6B3F0E50B90E6B4F0FF
:1000E0000203341215D1500FE51290E6B3F0E51378
:1000F00090E6B4F002033490E6A0E04401F002037D
:1001000034E50C90E6B3F0E50D90E6B4F00203346C
:10011000E50E90E6B3F0E50F90E6B4F002033490FC
:10012000E6BAE0FF1213C0AA06A9077B01EA494B11
:10013000600DEE90E6B3F0EF90E6B4F00203349079
:10014000E6A0E04401F002033490E6A0E04401F0B0
:100150000203341215B102033412160402033412DE
:1001600015FC02033412159F0203341216184003C3
:1001700002033490E6B8E0247F602B14603C240234
:10018000600302020AA200E433FF25E0FFA202E4BA
:10019000334F90E740F0E4A3F090E68AF090E68BCE
:1001A0007402F0020334E490E740F0A3F090E68A92
:1001B000F090E68B7402F002033490E6BCE0547ECB
:1001C000FF7E00E0D3948040067C007D0180047CAB
:1001D000007D00EC4EFEED4F24F2F58274153EF5E5
:1001E00083E493FF3395E0FEEF24A1FFEE34E68F26
:1001F00082F583E0540190E740F0E4A3F090E68AB2
:10020000F090E68B7402F002033490E6A0E0440123
:10021000F002033412161A400302033490E6B8E0E9
:1002200024FE601D2402600302033490E6BAE0B4A9
:100230000105C20002033490E6A0E04401F002038D
:100240003490E6BAE0705990E6BCE0547EFF7E0040
:10025000E0D3948040067C007D0180047C007D001A
:10026000EC4EFEED4F24F2F58274153EF583E493D7
:10027000FF3395E0FEEF24A1FFEE34E68F82F58395
:10028000E054FEF090E6BCE05480FF131313541FBB
:10029000FFE0540F2F90E683F0E04420F002033497
:1002A00090E6A0E04401F002033402033412161C6D
:1002B000400302033490E6B8E024FE602324027079
:1002C0005E90E6BAE0B40104D200806890E6BAE03D
:1002D000B40204805F805D90E6A0E04401F08054A9
:1002E00090E6BCE0547EFF7E00E0D3948040067C24
:1002F000007D0180047C007D00EC4EFEED4F24F279
:10030000F58274153EF583E493FF3395E0FEEF2408
:10031000A1FFEE34E68F82F583E04401F080159072
:10032000E6A0E04401F0800C121110500790E6A006
:0B033000E04401F090E6A0E04480F003
:01033B00229F
:03003300020BF9C4
:040BF90053D8EF32AC
:040B0C00C105C1045A
:100ECA0090E6007410F000000090E61074A0F09014
:100EDA00E611F090E61274E8F000000090E6137450
:100EEA0020F000000090E614F000000090E615746F
:100EFA0060F000000090E6047480F00000007402C4
:100F0A00F0000000E4F000000090E618740CF00015
:100F1A000000E490E61AF000000090E619F00000E4
:100F2A000090E61BF000000090E68D7440F000008F
:0E0F3A000090E6D27402F00000001209882236
:10103000121368E5BA20E10690E68D7440F0E5BB36
:1010400030E73930040990E6487402F0C2042230D7
:10105000052A1215E75025E490E6CEF00000009036
:10106000E6CFF000000090E6D0F000000090E6D15E
:0D10700004F000000075BB04C205D204228C
:020BFD00D32201
:02161400D322DF
:02161600D322DD
:0815FC0090E6BAE0F543D322AA
:10159F0090E740E543F0E490E68AF090E68B04F0A4
:0215AF00D32245
:0816040090E6BAE0F542D322A2
:1015B10090E740E542F0E490E68AF090E68B04F093
:0215C100D32233
:02161800D322DB
:02161A00D322D9
:02161C00D322D7
:1011100090E6B9E024E0601D24F0601E24F8601F12
:1011200024D8602024F8602124C6602224927023F1
:1011300012158C80201207D0801B12150080161209
:1011400012AF8011120DAA800C120BA88007120496
:07115000AE8002D322C3228E
:10151900C0E0C083C082D2015391EF90E65D7401AF
:08152900F0D082D083D0E03243
:10156000C0E0C083C0825391EF90E65D7404F0D078
:0615700082D083D0E032BE
:10157600C0E0C083C0825391EF90E65D7402F0D064
:0615860082D083D0E032A8
:100F4800C0E0C083C08290E680E030E72D85080CC1
:100F580085090D850D82850C83A37402F085100E1A
:100F680085110F850F82850E83A37407F090E62400
:100F78007402F090E625E4F0802B85100C85110DA5
:100F8800850D82850C83A37402F085080E85090FF0
:100F9800850F82850E83A37407F090E624E4F09011
:100FA800E6257440F05391EF90E65D7410F0D0821E
:050FB800D083D0E032FF
:10153100C0E0C083C082D2035391EF90E65D74088E
:08154100F0D082D083D0E0322B
:100CB800C0E0C083C08290E680E030E72B85080C56
:100CC80085090D850D82850C83A37402F085100EAD
:100CD80085110F850F82850E83A37407F090E62493
:100CE8007402F090E625E4F05391EF90E65D7420ED
:080CF800F0D082D083D0E0327D
:010BFF0032C3
:01161E003299
:01161F003298
:011620003297
:011621003296
:011622003295
:011623003294
:011624003293
:011625003292
:011626003291
:011627003290
:01162800328F
:01162900328E
:01162A00328D
:01162B00328C
:01162C00328B
:01162D00328A
:01162E003289
:01162F003288
:011630003287
:011631003286
:011632003285
:011633003284
:011634003283
:011635003282
:011636003281
:011637003280
:01163800327F
:01163900327E
:01163A00327D
:01163B00327C
:01163C00327B
:01163D00327A
:01163E003279
:01163F003278
:011640003277
:10143E0001020408102040800A031A1E11150D0621
:10144E001814071000131D0B0C1C051619090E019C
:08145E0008171B021F0F041206
:070B1000011A00021B0000A6
:10133B00D285D283C287D28243B2ACD285D283C24A
:10134B0087D282D2B2D2B5D2B4C2B143B536D2B201
:0D135B00D2B5D2B4C2B11215C3751AC122A9
:10158C0090E6B8E0B4400B90E6BAE06003C2822269
:03159C00D28222D6
:1015000090E6B8E0B44011E51A54C0FFBFC009D25C
:09151000057FD07E071214AB2206
:1012AF0090E6B8E064407026C287E5BB20E7077F71
:1012BF00051215DC80F4C205C20490E6047480F0B8
:0F12CF000000007402F0000000E4F000000022B4
:10148B00E4FEFDEF1392B4C2B5EFC313FFEEC3132B
:0F149B00FE30B303430680D2B50DBD08E6AF06A1
:0114AA00221F
:10119D008D36EF24E3601E146022241E702EE5367A
:1011AD0030E00F1208BB5006D287431A8022531A23
:1011BD007F22C28722751B0085361C22E536FEE490
:0D11CD00251CF51CEE351BF51B1206CA2271
:02141500AE0720
:10141700EE7013531AFCE5BB30E705431A0180034E
:10142700431A02AF1A22C2B2EE4480FF12148BE4B1
:06143700FF12148BD2B27B
:01143D00228C
:1007D00090E6BAE0F53390E6BFE0FE90E6BEE07C3E
:1007E000002400F535EC3EF53490E6B8E064407046
:1007F0005BD3E5359400E5346480948050030208AF
:10080000BAE490E68AF000000090E68BF000000069
:10081000E5BA20E0FB90E68BE0F532E4F531E53116
:10082000C39532501874402531F582E434E7F583DE
:10083000E0FDAF3312119D0533053180E1C3E5358D
:100840009532F535E5349400F53480A590E6B8E0AE
:1008500064C07066D3E5359400E5346480948040CC
:1008600059E5BA20E0FBC3E5359440E53464809453
:100870008050058535328003753240E4F531E5312D
:10088000C395325018AF3312141574402531F582D8
:10089000E434E7F583EFF00533053180E1E490E6D9
:1008A0008AF000000090E68BE532F0FFC3E5359F4B
:0A08B000F535E5349400F534809A24
:0108BA00221B
:0213EB008F3839
:1013ED00753901E539602055386004D2848002C218
:1013FD0084C2857F461215DCD2857F1E1215DCE571
:07140D003925E0F53980DC10
:0114140022B5
:10130D00753801E5386024C2857F461215DC3084BE
:10131D0006E53842398005E538F45239D2857F1E0D
:0D132D001215DCE53825E0F53880D8AF3921
:01133A002290
:100DAA0090E6B8E06440704790E68AF00000009050
:100DBA00E68BF0000000E5BA20E0FB90E68BE0F558
:100DCA0032D2837F641215DCC28343B210E4F53158
:100DDA00E531C39532501474402531F582E434E785
:100DEA00F583E0FF1213EB053180E553B2EF229051
:100DFA00E6B8E064C0703C90E6BEE0F532E5BA20A1
:100E0A00E0FB53B2EFE4F531E531C39532501412E9
:100E1A00130D74402531F582E434E7F583EFF005CC
:100E2A003180E5D283E490E68AF000000090E68BF8
:030E3A00E532F0AE
:010E3D002292
:100BA80090E6B8E06440704890208074A3F0A37485
:100BB80011F0A374CBF07E207F837B107D107C0026
:100BC8001210C7D2837F641215DCC28343B210E4CB
:100BD800F53174802531F582E43420F583E0FF1285
:100BE80013EB0531E531C3941340E753B2EFD283D9
:010BF80022DA
:040A51008C388D3917
:100A5500E4F53AE53A2404FDE433FCEF2DF582EEA6
:100A65003CF583E0FDEF253AF582E43EF583E06D44
:100A7500FD74A0253AF582E43420F583EDF0053ABE
:100A8500E53AB404CEE4F53AE53A90144693F53BDD
:100A9500E53A131313541F24A0F582E43420F5839B
:100AA500E0FFE53A540790143E93FEEF5E6028E5BB
:100AB5003B131313541F2539F582E43538F583C0EC
:100AC50083C082E0FFE53B540790143E93FEEF4E52
:100AD500D082D083F08027E53B131313541F2539AB
:100AE500F582E43538F583C083C082E0FFE53B54E9
:100AF5000790143E93F4FEEF5ED082D083F0053A62
:060B0500E53A6420708255
:010B0B0022C7
:1008BB0090208074A3F0A37409F0A374A6F0A3E5B1
:1008CB0016F0A3E517F0A3E518F0A3E519F0E5166C
:1008DB00F4A3F0E517F4A3F0E518F4A3F0E519F48D
:1008EB00A3F0D2837F641215DCC28343B210E4F50C
:1008FB003774802537F582E43420F583E0FF12133B
:10090B00EB0537E537C3940B40E753B2EFE4F5370C
:10091B007FC81215DC0537E537C3940F40F2E4F5B9
:10092B003712130D748C2537F582E43420F583EFE1
:10093B00F00537E537C3940A40E7D2837E207F8EDC
:10094B007C207D98120A5190209BE0FF645160053A
:10095B00EF64527026902083E0FF902098E0B5075B
:10096B001A902084E0FF902099E0B5070E90208527
:0C097B00E0FF90209AE0B50702D322C3F1
:01098700224D
:10136800AF19AE18AD17AC16780112101D8F198E73
:10137800188D178C16E517A2E59206E517A2E692D6
:0B13880007A207300601B3E43342194E
:011393002237
:0B15DC000000000000000000DFF6220D
:0E15C300E4F5C8F5CBF5CAF5CDF5CCC2AD22E6
:1014AB00AD07AC06ED7802C333CE33CED8F9FFC30C
:0D14BB00E49FFDE49EFCF5CD8DCCD2CA224D
:0B15E70030CF06C2CAC2CFD322C322FD
:100B17006020200001010101010101070000000020
:100B27000000000007070707070707070000000086
:100B37000000003F602020600F0001010101010754
:100B47000103020202020202060404040404040769
:100B5700F10000000000003F602020200117000185
:100B67000101010700010302020202020606040452
:100B77000404040700F100000000003F602020404B
:100B8700010101012F00010700000000010302001D
:100B9700060606060604040700000000F100003FF1
:1009880090E60174EAF090E6F574FFF090E6F374EF
:1009980080F0E490E6C3F090E6C1F090E6C27407F8
:1009A800F090E6C074E4F075AF077420F59A7460AF
:1009B800F59B759DE4E4F59EFD90E67BE090E67C72
:1009C800F00DBD20F47420F59A7400F59B759DE434
:1009D800759E20E4FD90E67BE090E67CF00DBD205E
:1009E800F47420F59A7400F59B759DE4759E40E4B7
:1009F800FD90E67BE090E67CF00DBD20F47420F5D8
:100A08009A7400F59B759DE4759E60E4FD90E67B05
:100A1800E090E67CF00DBD20F4000000E490E6C410
:100A2800F000000090E6C5F090E6C6F090E6C7F04A
:100A380090E6C8F090E6C9F090E6CAF090E6CBF0F0
:080A480090E6CCF090E6CDF041
:010A50002283
:1006CA00C3E51B94014003020759E51C9401E51B8D
:1006DA0094005022D2B17420F59A7460F59B759DEE
:1006EA00E4E4F59EF53790E67BE090E67CF005378A
:1006FA00E537B420F122E51C6402451B7022C2B121
:10070A007420F59A7460F59B759DE4E4F59EF537BF
:10071A0090E67BE090E67CF00537E537B420F122DD
:10072A00C2B17420F59A7420F59B759DE4E4F59E98
:10073A00F53790E67BE090E67CF00537E537B420A4
:10074A00F17CE47D00E51C24FE8D828C83F022C2BC
:10075A00B17420F59A7440F59B759DE4E4F59EF515
:10076A003790E67BE090E67CF00537E537B420F178
:10077A00E51C24FEFFE51B34FFFEEF7802CEC3130F
:10078A00CE13D8F9F537E51C24FE5403FF7CE47D2B
:10079A00000DED70010C14F5827583E4E537F00D58
:1007AA00EDAA0470010C14FB05828A83E537F00D6B
:1007BA00EDAA0470010C140B05828A83E537F02F29
:0507CA0005828C83F0A4
:0107CF002207
:1013940090E682E030E004E020E60B90E682E03064
:1013A400E119E030E71590E680E04401F07F147E17
:0C13B4000012115790E680E054FEF02279
:1012DE0030060990E680E0440AF0800790E680E050
:1012EE004408F07FDC7E0512115790E65D74FFF026
:0F12FE0090E65FF05391EF90E680E054F7F02216
:08160C00E4F541D2E9D2AF225E
:1011DA00AD0790E678E020E6F9C2E990E678E044C7
:1011EA0080F0ED25E090E679F090E678E030E0F9DD
:1011FA0090E678E04440F090E678E020E6F990E660
:08120A0078E030E1D6D2E922C0
:10127D00AC0790E678E020E6F9E541702390E6783A
:10128D00E04480F0EC25E090E679F08D3CAF03A9C9
:10129D0007753D018A3E893FE4F540754101D32232
:0212AD00C3225A
:10124900AC0790E678E020E6F9E541702590E6786C
:10125900E04480F0EC25E0440190E679F08D3CAF64
:1012690003A907753D018A3E893FE4F540754103AD
:04127900D322C32297
:03004B000205C2E9
:1005C200C0E0C083C082C085C084C086758600C07A
:1005D200D075D000C000C001C002C003C006C00771
:1005E20090E678E030E2067541060206AC90E678C5
:1005F200E020E10CE541640260067541070206ACA9
:10060200E54124FE605F14603624FE700302069DFD
:1006120024FC70030206A9240860030206ACAB3D69
:10062200AA3EA93FAF4005408F82758300120FBDDD
:1006320090E679F0E540653C7070754105806B90FD
:10064200E679E0AB3DAA3EA93FAE408E82758300BB
:10065200120FEA754102E53C6401704E90E678E0C3
:100662004420F08045E53C24FEB5400790E678E062
:100672004420F0E53C14B5400A90E678E04440F0AE
:1006820075410090E679E0AB3DAA3EA93FAE408EAF
:1006920082758300120FEA0540800F90E678E044ED
:1006A20040F075410080037541005391DFD007D0BF
:1006B20006D003D002D001D000D0D0D086D084D0D2
:0806C20085D082D083D0E03224
:0213C000A9077B
:1013C200AE14AF158F828E83A3E064037017AD0154
:1013D20019ED7001228F828E83E07C002FFDEC3E9E
:0813E200FEAF0580DFE4FEFF11
:0113EA0022E0
:1014C800121249E54124FA600E146006240770F3ED
:0C14D800D322E4F541D322E4F541D322F5
:1014E40012127DE54124FA600E146006240770F39D
:0C14F400D322E4F541D322E4F541D322D9
:1014660090E682E044C0F090E681F04387010000F8
:041476000000002250
:101157008E318F3290E600E054187012E532240188
:10116700FFE43531C313F531EF13F532801590E6FF
:1011770000E05418FFBF100BE53225E0F532E531EA
:1011870033F531E5321532AE31700215314E600557
:0611970012147A80EE2222
:10147A007400F58690FDA57C05A3E582458370F985
:01148A00223F
:03004300020C00AC
:03005300020C009C
:100C00000215190002157600021560000215310068
:100C1000020F4800020CB800020BFF0002161E0073
:100C200002161F00021620000216210002162200E2
:100C300002162300021624000216250002162600C2
:100C40000216270002161E000216280002162900AE
:100C500002162A0002162B0002162C0002162D0086
:100C600002162E0002161E0002161E0002161E009C
:100C700002162F0002163000021631000216320052
:100C80000216330002163400021635000216360032
:100C900002163700021638000216390002163A0012
:100CA00002163B0002163C0002163D0002163E00F2
:080CB00002163F00021640008D
:03000000020E3EAF
:0C0E3E00787FE4F6D8FD758143020E8534
:100FBD00BB010CE58229F582E5833AF583E02250E9
:100FCD0006E92582F8E622BBFE06E92582F8E22233
:0D0FDD00E58229F582E5833AF583E493224D
:100FEA00F8BB010DE58229F582E5833AF583E8F03D
:100FFA00225006E92582C8F622BBFE05E92582C8E9
:02100A00F222D0
:10100C00EB9FF5F0EA9E42F0E99D42F0E89C45F03A
:01101C0022B1
:10101D00E8600FEFC333FFEE33FEED33FDEC33FC31
:03102D00D8F122D5
:100E4A0002033CE493A3F8E493A34003F68001F27F
:100E5A0008DFF48029E493A3F85407240CC8C333A9
:100E6A00C4540F4420C8834004F456800146F6DF78
:100E7A00E4800B0102040810204080900B0CE47EF1
:100E8A00019360BCA3FF543F30E509541FFEE4936D
:100E9A00A360010ECF54C025E060A840B8E493A334
:100EAA00FAE493A3F8E493A3C8C582C8CAC583CA5F
:100EBA00F0A3C8C582C8CAC583CADFE9DEE780BE17
:010BA700004D
:00000001FF
