:100D00001201000200000040A177A20100000102D0
:100D100000010A0600020000004001000902200054
:100D200001010080320904000002FF0000000705F5
:100D300002020002000705860200020009022000EC
:100D400001010080320904000002FF0000000705D5
:100D50000202400000070586024000000403090467
:100D60000E034B0069006E006700730074002C03D3
:100D70004B0069006E0067007300740020004C0097
:100D80006F00670069006300200041006E00610091
:0C0D90006C0079007A0065007200000021
:0A10ED008E368F378C388D398B3A20
:1010F700E4FDE51C6012E538FF7E000DEE2494F553
:1011070082E43420F583EFF0E539AE050D74942EB3
:10111700F582E43420F583E539F07A207B94AF1D1E
:0E1127001213B3AB37AA36AD3AAF1D121397B1
:011135002297
:0610A300AB07AA06AC0534
:1010A900E4FDE51C6010EA7E000DEE2480F582E483
:1010B9003420F583EAF0EBAE050D74802EF582E459
:1010C9003420F583EBF0AF050D74802FF582E434FD
:1010D90020F583ECF07A207B80AF1D1213B3AF1D8E
:0310E90012117C65
:0110EC0022E1
:0A11B4008E368F378C388D398B3A58
:1011BE00E4F53BF53BE53BC3953A50200537E53763
:1011CE00AE367002053614FFE539253BF582E4355F
:0C11DE0038F583E0FD1210A3053B80D91A
:0111EA0022E2
:1004AE0090E6BBE0FE90E6BAE07C002400F533EC6B
:1004BE003EF53290E6BFE0FE90E6BEE02400F53554
:1004CE00EC3EF53490E6B8E064C07075D3E5359433
:1004DE0000E534940050030205C1E5BA20E0FBD3D9
:1004EE00E5359440E5349400401175314074C025D3
:1004FE0035F53574FF3534F5348008853531E4F53E
:10050E0034F535E4FFEFC39531501074402FF5826A
:10051E00E434E7F58374CDF00F80EA7EE77F40ABDD
:10052E0031AD33AC321210EDE490E68AF0000000EB
:10053E0090E68BE531F02533F533E43532F5328034
:10054E008B90E6B8E06440706A43B401C2A0D3E574
:10055E00359400E53494004057E490E68AF00000AC
:10056E000090E68BF0000000E5BA20E0FB000000F2
:10057E0090E68BE0F531FF7E00D3E5359FE5349EA6
:10058E00400CE5359FF535E5349EF534800885350C
:10059E0031E4F534F5357CE77D40AB31AF33AE3227
:1005AE001211B4E5312533F533E43532F532809E40
:0305BE0053B4FE35
:0105C1002217
:101431001214FA90E678E05410FFC4540F4450F5AA
:071441001D13E433F51C222A
:0A14E80000010202030304040505DD
:10033C00E4F52CF52BF52AF529C203C200C202C242
:10034C0001120EAD7E0D7F008E0A8F0B75120D758E
:10035C00131275080D75091C75100D75113C75146B
:10036C000D75155CEE54C07003020441752D0075BB
:10037C002E808E2F8F30C3749A9FFF740D9ECF24C6
:10038C0002CF3400FEE48F288E27F526F525F524C0
:10039C00F523F522F521AF28AE27AD26AC25AB24ED
:1003AC00AA23A922A821C31208795037E5302524A5
:1003BC00F582E52F3523F583E0FFE52E2524F58224
:1003CC00E52D3523F583EFF0E4FAF9F8E524240163
:1003DC00F524EA3523F523E93522F522E83521F514
:1003EC002180B3852D0A852E0B74002480FF740D9B
:1003FC0034FFFEC3E5139FF513E5129EF512C3E51A
:10040C000D9FF50DE50C9EF50CC3E50F9FF50FE563
:10041C000E9EF50EC3E5099FF509E5089EF508C388
:10042C00E5119FF511E5109EF510C3E5159FF51527
:10043C00E5149EF514D2E843D82090E668E0440910
:10044C00F090E65CE0443DF0D2AF90E680E020E135
:10045C0005D20612128290E680E054F7F0538EF823
:10046C00C203120BBF121431120B21300105120002
:10047C0080C2013003F212150650EDC2031213357F
:10048C0020001690E682E030E704E020E1EF90E6F1
:10049C0082E030E604E020E0E41212DE121508805F
:0104AC00C788
:0104AD00222C
:0B14C70090E50DE030E402C322D322C8
:1000800090E6B9E0700302016B14700302021424BD
:10009000FE70030202AD24FB7003020165147003BD
:1000A00002015F147003020153147003020159240A
:1000B00005600302032812150A400302033490E688
:1000C000BBE024FE603B14605624FD6016146040C3
:1000D00024067075E50A90E6B3F0E50B90E6B4F0FF
:1000E0000203341214C7500FE51290E6B3F0E51383
:1000F00090E6B4F002033490E6A0E04401F002037D
:1001000034E50C90E6B3F0E50D90E6B4F00203346C
:10011000E50E90E6B3F0E50F90E6B4F002033490FC
:10012000E6BAE0FF12130AAA06A9077B01EA494BC7
:10013000600DEE90E6B3F0EF90E6B4F00203349079
:10014000E6A0E04401F002033490E6A0E04401F0B0
:100150000203341214990203341214F2020334120B
:100160000BF802033412148702033412150C4003F7
:1001700002033490E6B8E0247F602B14603C240234
:10018000600302020AA200E433FF25E0FFA202E4BA
:10019000334F90E740F0E4A3F090E68AF090E68BCE
:1001A0007402F0020334E490E740F0A3F090E68A92
:1001B000F090E68B7402F002033490E6BCE0547ECB
:1001C000FF7E00E0D3948040067C007D0180047CAB
:1001D000007D00EC4EFEED4F24E8F58274143EF5F0
:1001E00083E493FF3395E0FEEF24A1FFEE34E68F26
:1001F00082F583E0540190E740F0E4A3F090E68AB2
:10020000F090E68B7402F002033490E6A0E0440123
:10021000F002033412150E400302033490E6B8E0F6
:1002200024FE601D2402600302033490E6BAE0B4A9
:100230000105C20002033490E6A0E04401F002038D
:100240003490E6BAE0705990E6BCE0547EFF7E0040
:10025000E0D3948040067C007D0180047C007D001A
:10026000EC4EFEED4F24E8F58274143EF583E493E2
:10027000FF3395E0FEEF24A1FFEE34E68F82F58395
:10028000E054FEF090E6BCE05480FF131313541FBB
:10029000FFE0540F2F90E683F0E04420F002033497
:1002A00090E6A0E04401F00203340203341215107A
:1002B000400302033490E6B8E024FE602324027079
:1002C0005E90E6BAE0B40104D200806890E6BAE03D
:1002D000B40204805F805D90E6A0E04401F08054A9
:1002E00090E6BCE0547EFF7E00E0D3948040067C24
:1002F000007D0180047C007D00EC4EFEED4F24E883
:10030000F58274143EF583E493FF3395E0FEEF2409
:10031000A1FFEE34E68F82F583E04401F080159072
:10032000E6A0E04401F0800C121053500790E6A0C4
:0B033000E04401F090E6A0E04480F003
:01033B00229F
:03003300021502B1
:0415020053D8EF3299
:040FFD00C105C10465
:100EAD0090E6007410F000000090E6107420F090B1
:100EBD00E611F090E61274A0F000000090E61374B5
:100ECD0020F000000090E61474E0F000000090E6C1
:100EDD00157460F000000090E6047480F0000000CE
:100EED007402F00000007406F0000000E4F0000051
:100EFD000090E61804F000000090E61A740DF00062
:100F0D00000090E6917480F0000000F0000000F009
:100F1D00000000F000000090E6E27402F000000016
:040F2D0012099222F1
:100B2100E5AA20E0297EF07F00C006C00790E6908C
:100B3100E0FE90E691E07C002400FDEC3EFCD00755
:100B4100D006120E2890E6917480F0000000E5BBFB
:100B510030E73A30040990E6487406F0C2042230C6
:100B6100055B1214DD5056E490E6CEF000000090D3
:100B7100E6CFF000000090E6D0F000000090E6D152
:100B810004F000000075BB06C205D2042290E6F411
:100B9100E020E12900000090E6F574FFF00000007C
:100BA10090E6B0E0700C90E6AFE020E0057F6412C3
:0E0BB10014D200000090E6487406F0C2042240
:02150600D322EE
:02150800D322EC
:02150A00D322EA
:080BF80090E6BAE0F51FD322DC
:1014870090E740E51FF0E490E68AF090E68B04F0E1
:02149700D3225E
:0814F20090E6BAE0F51ED322DA
:1014990090E740E51EF0E490E68AF090E68B04F0D0
:0214A900D3224C
:02150C00D322E8
:02150E00D322E6
:02151000D322E4
:1010530090E6B9E024E0602124F0602224F86023C4
:1010630024E8602424F0602524F8602624C6602741
:101073002492702812147480251208B78020121449
:1010830019801B12125180161206CA8011120A5BB4
:10109300800C120FA680071204AE8002D322C32253
:1013E900C0E0C083C082D2015391EF90E65D7401E1
:0813F900F0D082D083D0E03275
:10144800C0E0C083C0825391EF90E65D7404F0D091
:0614580082D083D0E032D7
:10145E00C0E0C083C0825391EF90E65D7402F0D07D
:06146E0082D083D0E032C1
:100F3100C0E0C083C08290E680E030E72D85080CD8
:100F410085090D850D82850C83A37402F085100E31
:100F510085110F850F82850E83A37407F090E62417
:100F61007402F090E625E4F0802B85100C85110DBC
:100F7100850D82850C83A37402F085080E85090F07
:100F8100850F82850E83A37407F090E624E4F09028
:100F9100E6257440F05391EF90E65D7410F0D08235
:050FA100D083D0E03216
:10140100C0E0C083C082D2035391EF90E65D7408BF
:08141100F0D082D083D0E0325C
:100CB800C0E0C083C08290E680E030E72B85080C56
:100CC80085090D850D82850C83A37402F085100EAD
:100CD80085110F850F82850E83A37407F090E62493
:100CE8007402F090E625E4F05391EF90E65D7420ED
:080CF800F0D082D083D0E0327D
:0115120032A6
:0115130032A5
:0115140032A4
:0115150032A3
:0115160032A2
:0115170032A1
:0115180032A0
:01151900329F
:01151A00329E
:01151B00329D
:01151C00329C
:01151D00329B
:01151E00329A
:01151F003299
:011520003298
:011521003297
:011522003296
:011523003295
:011524003294
:011525003293
:011526003292
:011527003291
:011528003290
:01152900328F
:01152A00328E
:01152B00328D
:01152C00328C
:01152D00328B
:01152E00328A
:01152F003289
:011530003288
:011531003287
:011532003286
:011533003285
:011534003284
:011535003283
:09100100043C0000000001400065
:100BBF00D2A3D2A6D2A743B4C8D2A3D2A6D2A7E4B7
:100BCF00F598C2AC90E672E04408F075C0C0D2DF71
:100BDF00C2AE438E1053890F438920758DC6758B16
:090BEF00C6C2ABD28E1214AB2277
:100E28008E318F328C338D34E4FFFEFDFCAB3FAA4C
:100E38003EA93DA83CD31208634069AE33AF34E401
:100E4800FCFDA83C1208634021AE33AF34AB07AABF
:100E580006E4E53F9BF53FE53E9AF53EE53D940007
:100E6800F53DE53C9400F53C800F853E33853F34E5
:100E7800E4F53FF53EF53DF53CE531F59AAE31E553
:100E880032F59BD299E5341534AE33700215334EE2
:100E9800600D3099FDC29990E67BE0F59980E630C7
:050EA80099FDC2992232
:1006CA0090E6B8E06440600302077190E691748096
:1006DA00F0000000F0000000F0000000F000000050
:1006EA00E490E68AF000000090E68BF0000000E556
:1006FA00BA20E0FB90E741E0FF7E007C017D00121A
:10070A00088AAB07AA06A905A80490E740E0FFE417
:10071A00EF2BFFE43AFEE439FDE438FCC004C005DF
:10072A00C006C00790E742E0FFE4FCFDFEFBFA7951
:10073A0001F8120814D003D002D001D000EB2FF533
:10074A003FEA3EF53EE93DF53DE83CF53CD2A730AF
:10075A00A2FDC2A37F011214D220A2FDD2A330A20D
:10076A00FD7F021214D22290E6B8E064C0704BE515
:10077A00BA20E0FB90E7407407F0E4F53130A107B6
:10078A00E490E740F0800E7F641214D20531E5311F
:10079A00C394C840E890E6917480F0000000F0002D
:1007AA000000F0000000F0000000E490E68AF0008B
:0A07BA00000090E68B04F000000040
:0107C4002212
:1014740090E6B8E0B4400B90E6BAE06003C2A7225D
:03148400D2A722CA
:1013CF00C2A6C29CC299EF547FF5993099FDC2997C
:0A13DF008D993099FDC299D2A62223
:10135A00C2A6C29CC299EF4480F5993099FDC29900
:0F136A00C298D29C3098FDAF99C29CC298D2A66F
:011379002251
:1008B70090E6BAE0FA90E6BFE0FE90E6BEE07C0084
:1008C7002400F532EC3EF53190E6B8E0644070550F
:1008D700D3E5329400E53164809480500302099196
:1008E700E490E68AF000000090E68BF0000000E557
:1008F700BA20E0FB90E68BE0FBE4F9E9C39B5015D7
:10090700AF02744029F582E434E7F583E0FD121362
:10091700CF0A0980E6EBFFC3E5329FF532E5319454
:1009270000F53180AB90E6B8E064C0705DD3E53286
:100937009400E531648094804050E5BA20E0FBC321
:10094700E5329440E531648094805004AB328002F4
:100957007B40E4F9E9C39B5015AF0212135A744068
:1009670029F582E434E7F583EFF00A0980E6E4909D
:10097700E68AF000000090E68BEBF0FFC3E5329FBC
:0A098700F532E5319400F53180A34C
:010991002243
:1014190090E6B8E0B440107D017F011213CFD205E8
:081429007FE87E0312137A2212
:1012510090E6B8E064407028E5BB20E70F90E6F522
:1012610074FFF0C205C2047F051214D290E6047423
:1012710080F00000007406F0000000E4F0000000BF
:01128100224A
:100A5B0090E6B8E06440705890E68AF00000009091
:100A6B00E68BF0000000E5BA20E0FB90E68BE0F5AA
:100A7B0032C2C4C2AEC2C1E4F531E531C3953250C6
:100A8B002574402531F582E434E7F583E0F533FF37
:100A9B001214B992C38533C130C1FDC2C17FB412E8
:100AAB0014D2053180D4D2C4C2C0D2AEE4F54022F8
:100ABB0090E6B8E064C0705D90E6BEE0F532E5BA52
:100ACB0020E0FBE4F531E531C39540501E74002561
:100ADB0031F582E43420F583E0FF74402531F58253
:100AEB00E434E7F583EFF0053180DBE531C3953274
:100AFB00501174402531F582E434E7F583E4F005B9
:100B0B003180E8E490E68AF000000090E68BE53255
:050B1B00F0C2C4C2AEEF
:010B200022B2
:100FA60090E6B8E06440704E90208074A3F0A3747D
:100FB60011F0A374CBF07E207F837B107D107C0024
:100FC6001210EDC2C4C2AEC2C1E4F531748025313F
:100FD600F582E43420F583E0F532FF1214B992C3AA
:100FE6008532C130C1FDC2C17FB41214D20531E5CC
:060FF60031C3941340D644
:010FFC0022D2
:0B14D2000000000000000000DFF62218
:0E14AB00E4F5C8F5CBF5CAF5CDF5CCC2AD22FF
:10137A00AD07AC06ED7802C333CE33CED8F9FFC33E
:0D138A00E49FFDE49EFCF5CD8DCCD2CA227F
:0B14DD0030CF06C2CAC2CFD322C32208
:0D14B900E4FEEF60060E14520780F7EE13FC
:0114C6002203
:03003B000212B1FD
:1012B100C0E0C083C082C0D030C019E540C39440B3
:1012C100501074002540F582E43420F583E5C1F027
:0D12D1000540C2C0D0D0D082D083D0E03222
:10100A0060202040010101010101010700000000E8
:10101A00000000000707070707070707000000008E
:10102A000000003F60202060010A09010101010758
:10103A000001030202020200060604040404040773
:08104A00007009000000003FE6
:1009920090E60174EAF090E6F574FFF090E6F374E5
:1009A20080F0E490E6C3F090E6C1F090E6C27407EE
:1009B200F090E6C074E4F075AF077420F59A7460A5
:1009C200F59B759DE4E4F59EFD90E67BE090E67C68
:1009D200F00DBD20F47420F59A7440F59B759DE4EA
:1009E200759E20E4FD90E67BE090E67CF00DBD2054
:1009F200F47420F59A7440F59B759DE4759E40E46D
:100A0200FD90E67BE090E67CF00DBD20F47420F5CD
:100A12009A7440F59B759DE4759E60E4FD90E67BBB
:100A2200E090E67CF00DBD20F4000000E490E6C406
:100A3200F000000090E6C5F090E6C6F090E6C7F040
:100A420090E6C8F090E6C9F090E6CAF090E6CBF0E6
:080A520090E6CCF090E6CDF037
:010A5A002279
:1012DE0090E682E030E004E020E60B90E682E0301B
:1012EE00E119E030E71590E680E04401F07F147ECE
:0C12FE000012113690E680E054FEF02251
:1012820030060990E680E0440AF0800790E680E0AC
:101292004408F07FDC7E0512113690E65D74FFF0A3
:0F12A20090E65FF05391EF90E680E054F7F02272
:0814FA00E4F51BD2E9D2AF2298
:10117C00AD0790E678E020E6F9C2E990E678E04425
:10118C0080F0ED25E090E679F090E678E030E0F93B
:10119C0090E678E04440F090E678E020E6F990E6BE
:0811AC0078E030E1D6D2E9221F
:10121F00AC0790E678E020E6F9E51B702390E678BE
:10122F00E04480F0EC25E090E679F08D16AF03A94D
:10123F00077517018A188919E4F51A751B01D3224E
:02124F00C322B8
:1011EB00AC0790E678E020E6F9E51B702590E678F1
:1011FB00E04480F0EC25E0440190E679F08D16AFE9
:10120B0003A9077517018A188919E4F51A751B03C9
:04121B00D322C322F5
:03004B000205C2E9
:1005C200C0E0C083C082C085C084C086758600C07A
:1005D200D075D000C000C001C002C003C006C00771
:1005E20090E678E030E206751B060206AC90E678EB
:1005F200E020E10CE51B64026006751B070206ACF5
:10060200E51B24FE605F14603624FE700302069D23
:1006120024FC70030206A9240860030206ACAB178F
:10062200AA18A919AF1A051A8F827583001207C575
:1006320090E679F0E51A65167070751B05806B906F
:10064200E679E0AB17AA18A919AE1A8E8275830053
:100652001207F2751B02E5166401704E90E678E00F
:100662004420F08045E51624FEB51A0790E678E0AE
:100672004420F0E51614B51A0A90E678E04440F0FA
:10068200751B0090E679E0AB17AA18A919AE1A8E6D
:10069200827583001207F2051A800F90E678E04413
:1006A20040F0751B008003751B005391DFD007D00B
:1006B20006D003D002D001D000D0D0D086D084D0D2
:0806C20085D082D083D0E03224
:02130A00A90731
:10130C00AE14AF158F828E83A3E064037017AD010A
:10131C0019ED7001228F828E83E07C002FFDEC3E54
:08132C00FEAF0580DFE4FEFFC7
:011334002296
:101397001211EBE51B24FA600E146006240770F3A4
:0C13A700D322E4F51BD322E4F51BD32273
:1013B30012121FE51B24FA600E146006240770F353
:0C13C300D322E4F51BD322E4F51BD32257
:1013350090E682E044C0F090E681F043870100002A
:041345000000002282
:101136008E318F3290E600E054187012E5322401A9
:10114600FFE43531C313F531EF13F532801590E620
:1011560000E05418FFBF100BE53225E0F532E5310B
:1011660033F531E5321532AE31700215314E600578
:0611760012134980EE2275
:101349007400F58690FDA57C05A3E582458370F9B7
:011359002271
:03004300020C00AC
:03005300020C009C
:100C00000213E90002145E000214480002140100FD
:100C1000020F3100020CB800021512000215130079
:100C20000215140002151500021516000215170012
:100C3000021518000215190002151A0002151B00F2
:100C400002151C000215130002151D0002151E00DE
:100C500002151F00021520000215210002152200B6
:100C600002152300021513000215130002151300CC
:100C70000215240002152500021526000215270082
:100C8000021528000215290002152A0002152B0062
:100C900002152C0002152D0002152E0002152F0042
:100CA0000215300002153100021532000215330022
:080CB0000215340002153500A5
:03000000020D9C52
:0C0D9C00787FE4F6D8FD758140020DE37D
:1007C500BB010CE58229F582E5833AF583E02250E9
:1007D50006E92582F8E622BBFE06E92582F8E22233
:0D07E500E58229F582E5833AF583E493224D
:1007F200F8BB010DE58229F582E5833AF583E8F03D
:10080200225006E92582C8F622BBFE05E92582C8E8
:02081200F222D0
:10081400E88FF0A4CC8BF0A42CFCE98EF0A42CFC83
:100824008AF0EDA42CFCEA8EF0A4CDA8F08BF0A401
:100834002DCC3825F0FDE98FF0A42CCD35F0FCEB60
:100844008EF0A4FEA9F0EB8FF0A4CFC5F02ECD3925
:0F085400FEE43CFCEAA42DCE35F0FDE43CFC2292
:10086300EB9FF5F0EA9E42F0E99D42F0EC6480C80C
:0608730064809845F022AC
:10087900EB9FF5F0EA9E42F0E99D42F0E89C45F0D5
:01088900224C
:10088A00EC8EF0A4CCC5F0CCCDF8EFA4CEC5F02DFB
:10089A00FDE43CFCE8A42EC8C5F03DFDE43CFCEFB9
:0D08AA00A4FFE5F028FEE43DFDE43CFC2247
:100DA80002033CE493A3F8E493A34003F68001F222
:100DB80008DFF48029E493A3F85407240CC8C3334C
:100DC800C4540F4420C8834004F456800146F6DF1B
:100DD800E4800B0102040810204080900FFDE47E9F
:100DE800019360BCA3FF543F30E509541FFEE49310
:100DF800A360010ECF54C025E060A840B8E493A3D7
:100E0800FAE493A3F8E493A3C8C582C8CAC583CA01
:100E1800F0A3C8C582C8CAC583CADFE9DEE780BEB9
:01105200009D
:00000001FF
