:100D00001201000200000040A177A10300000102CF
:100D100000010A0600020000004001000902200054
:100D200001010080320904000002FF0000000705F5
:100D300002020002000705860200020009022000EC
:100D400001010080320904000002FF0000000705D5
:100D50000202400000070586024000000403090467
:100D60000E034B0069006E006700730074004203BD
:100D70004B0069006E0067007300740020004D0096
:100D80006900780065006400200053006900670076
:100D90006E0061006C0020004F007300630069006A
:100DA0006C006C006F00730063006F0070006500E2
:020DB000000041
:0A110A008E368F378C388D398B3A02
:10111400E4FDE51C6012E538FF7E000DEE2494F535
:1011240082E43420F583EFF0E539AE050D74942E96
:10113400F582E43420F583E539F07A207B94AF1D01
:0E1144001213D0AB37AA36AD3AAF1D1213B45A
:01115200227A
:0610C000AB07AA06AC0517
:1010C600E4FDE51C6010EA7E000DEE2480F582E466
:1010D6003420F583EAF0EBAE050D74802EF582E43C
:1010E6003420F583EBF0AF050D74802FF582E434E0
:1010F60020F583ECF07A207B80AF1D1213D0AF1D54
:031106001211992A
:0111090022C3
:0A11D1008E368F378C388D398B3A3B
:1011DB00E4F53BF53BE53BC3953A50200537E53746
:1011EB00AE367002053614FFE539253BF582E43542
:0C11FB0038F583E0FD1210C0053B80D9E0
:0112070022C4
:1004AE0090E6BBE0FE90E6BAE07C002400F533EC6B
:1004BE003EF53290E6BFE0FE90E6BEE02400F53554
:1004CE00EC3EF53490E6B8E064C07075D3E5359433
:1004DE0000E534940050030205C1E5BA20E0FBD3D9
:1004EE00E5359440E5349400401175314074C025D3
:1004FE0035F53574FF3534F5348008853531E4F53E
:10050E0034F535E4FFEFC39531501074402FF5826A
:10051E00E434E7F58374CDF00F80EA7EE77F40ABDD
:10052E0031AD33AC3212110AE490E68AF0000000CD
:10053E0090E68BE531F02533F533E43532F5328034
:10054E008B90E6B8E06440706A43B401C2A0D3E574
:10055E00359400E53494004057E490E68AF00000AC
:10056E000090E68BF0000000E5BA20E0FB000000F2
:10057E0090E68BE0F531FF7E00D3E5359FE5349EA6
:10058E00400CE5359FF535E5349EF534800885350C
:10059E0031E4F534F5357CE77D40AB31AF33AE3227
:1005AE001211D1E5312533F533E43532F532809E23
:0305BE0053B4FE35
:0105C1002217
:10144E0012151790E678E05410FFC4540F4450F56F
:07145E001D13E433F51C220D
:0A15050000010202030304040505BF
:10033C00E4F52CF52BF52AF529C203C200C202C242
:10034C0001120E3E7E0D7F008E0A8F0B75120D75FD
:10035C00131275080D75091C75100D75113C75146B
:10036C000D75155CEE54C07003020441752D0075BB
:10037C002E808E2F8F30C374B09FFF740D9ECF24B0
:10038C0002CF3400FEE48F288E27F526F525F524C0
:10039C00F523F522F521AF28AE27AD26AC25AB24ED
:1003AC00AA23A922A821C31208795037E5302524A5
:1003BC00F582E52F3523F583E0FFE52E2524F58224
:1003CC00E52D3523F583EFF0E4FAF9F8E524240163
:1003DC00F524EA3523F523E93522F522E83521F514
:1003EC002180B3852D0A852E0B74002480FF740D9B
:1003FC0034FFFEC3E5139FF513E5129EF512C3E51A
:10040C000D9FF50DE50C9EF50CC3E50F9FF50FE563
:10041C000E9EF50EC3E5099FF509E5089EF508C388
:10042C00E5119FF511E5109EF510C3E5159FF51527
:10043C00E5149EF514D2E843D82090E668E0440910
:10044C00F090E65CE0443DF0D2AF90E680E020E135
:10045C0005D20612129F90E680E054F7F0538EF806
:10046C00C203120BBF12144E120B213001051200E5
:10047C0080C2013003F212152350EDC20312135245
:10048C0020001690E682E030E704E020E1EF90E6F1
:10049C0082E030E604E020E0E41212FB1215258025
:0104AC00C788
:0104AD00222C
:0B14E40090E50DE030E402C322D322AB
:1000800090E6B9E0700302016B14700302021424BD
:10009000FE70030202AD24FB7003020165147003BD
:1000A00002015F147003020153147003020159240A
:1000B000056003020328121527400302033490E66B
:1000C000BBE024FE603B14605624FD6016146040C3
:1000D00024067075E50A90E6B3F0E50B90E6B4F0FF
:1000E0000203341214E4500FE51290E6B3F0E51366
:1000F00090E6B4F002033490E6A0E04401F002037D
:1001000034E50C90E6B3F0E50D90E6B4F00203346C
:10011000E50E90E6B3F0E50F90E6B4F002033490FC
:10012000E6BAE0FF121327AA06A9077B01EA494BAA
:10013000600DEE90E6B3F0EF90E6B4F00203349079
:10014000E6A0E04401F002033490E6A0E04401F0B0
:100150000203341214B602033412150F02033412D0
:100160000BF80203341214A40203341215294003BD
:1001700002033490E6B8E0247F602B14603C240234
:10018000600302020AA200E433FF25E0FFA202E4BA
:10019000334F90E740F0E4A3F090E68AF090E68BCE
:1001A0007402F0020334E490E740F0A3F090E68A92
:1001B000F090E68B7402F002033490E6BCE0547ECB
:1001C000FF7E00E0D3948040067C007D0180047CAB
:1001D000007D00EC4EFEED4F2405F58274153EF5D2
:1001E00083E493FF3395E0FEEF24A1FFEE34E68F26
:1001F00082F583E0540190E740F0E4A3F090E68AB2
:10020000F090E68B7402F002033490E6A0E0440123
:10021000F002033412152B400302033490E6B8E0D9
:1002200024FE601D2402600302033490E6BAE0B4A9
:100230000105C20002033490E6A0E04401F002038D
:100240003490E6BAE0705990E6BCE0547EFF7E0040
:10025000E0D3948040067C007D0180047C007D001A
:10026000EC4EFEED4F2405F58274153EF583E493C4
:10027000FF3395E0FEEF24A1FFEE34E68F82F58395
:10028000E054FEF090E6BCE05480FF131313541FBB
:10029000FFE0540F2F90E683F0E04420F002033497
:1002A00090E6A0E04401F002033402033412152D5D
:1002B000400302033490E6B8E024FE602324027079
:1002C0005E90E6BAE0B40104D200806890E6BAE03D
:1002D000B40204805F805D90E6A0E04401F08054A9
:1002E00090E6BCE0547EFF7E00E0D3948040067C24
:1002F000007D0180047C007D00EC4EFEED4F240566
:10030000F58274153EF583E493FF3395E0FEEF2408
:10031000A1FFEE34E68F82F583E04401F080159072
:10032000E6A0E04401F0800C121070500790E6A0A7
:0B033000E04401F090E6A0E04480F003
:01033B00229F
:0300330002151F94
:04151F0053D8EF327C
:04101A00C105C10447
:100E3E0090E6007410F000000090E6107420F09020
:100E4E00E611F090E61274A0F000000090E6137424
:100E5E0020F000000090E61474E0F000000090E630
:100E6E00157460F000000090E6047480F00000003D
:100E7E007402F00000007406F0000000E4F00000C0
:100E8E000090E61804F000000090E61A740DF000D1
:100E9E00000090E6917480F0000000F0000000F079
:100EAE00000000F000000090E6E27402F000000086
:0B0EBE0012099290E67AE04401F02255
:100B2100E5AA20E0297EF07F00C006C00790E6908C
:100B3100E0FE90E691E07C002400FDEC3EFCD00755
:100B4100D006120EC990E6917480F0000000E5BB5A
:100B510030E73A30040990E6487406F0C2042230C6
:100B6100055B1214FA5056E490E6CEF000000090B6
:100B7100E6CFF000000090E6D0F000000090E6D152
:100B810004F000000075BB06C205D2042290E6F411
:100B9100E020E12900000090E6F574FFF00000007C
:100BA10090E6B0E0700C90E6AFE020E0057F6412C3
:0E0BB10014EF00000090E6487406F0C2042223
:02152300D322D1
:02152500D322CF
:02152700D322CD
:080BF80090E6BAE0F51FD322DC
:1014A40090E740E51FF0E490E68AF090E68B04F0C4
:0214B400D32241
:08150F0090E6BAE0F51ED322BC
:1014B60090E740E51EF0E490E68AF090E68B04F0B3
:0214C600D3222F
:02152900D322CB
:02152B00D322C9
:02152D00D322C7
:1010700090E6B9E024E0602124F0602224F86023A7
:1010800024E8602424F0602524F8602624C6602724
:101090002492702812149180251208B7802012140F
:1010A00036801B12126E80161206CA8011120A5B5D
:1010B000800C120FC380071204AE8002D322C32219
:10140600C0E0C083C082D2015391EF90E65D7401C3
:08141600F0D082D083D0E03257
:10146500C0E0C083C0825391EF90E65D7404F0D074
:0614750082D083D0E032BA
:10147B00C0E0C083C0825391EF90E65D7402F0D060
:06148B0082D083D0E032A4
:100F4E00C0E0C083C08290E680E030E72D85080CBB
:100F5E0085090D850D82850C83A37402F085100E14
:100F6E0085110F850F82850E83A37407F090E624FA
:100F7E007402F090E625E4F0802B85100C85110D9F
:100F8E00850D82850C83A37402F085080E85090FEA
:100F9E00850F82850E83A37407F090E624E4F0900B
:100FAE00E6257440F05391EF90E65D7410F0D08218
:050FBE00D083D0E032F9
:10141E00C0E0C083C082D2035391EF90E65D7408A2
:08142E00F0D082D083D0E0323F
:100CB800C0E0C083C08290E680E030E72B85080C56
:100CC80085090D850D82850C83A37402F085100EAD
:100CD80085110F850F82850E83A37407F090E62493
:100CE8007402F090E625E4F05391EF90E65D7420ED
:080CF800F0D082D083D0E0327D
:01152F003289
:011530003288
:011531003287
:011532003286
:011533003285
:011534003284
:011535003283
:011536003282
:011537003281
:011538003280
:01153900327F
:01153A00327E
:01153B00327D
:01153C00327C
:01153D00327B
:01153E00327A
:01153F003279
:011540003278
:011541003277
:011542003276
:011543003275
:011544003274
:011545003273
:011546003272
:011547003271
:011548003270
:01154900326F
:01154A00326E
:01154B00326D
:01154C00326C
:01154D00326B
:01154E00326A
:01154F003269
:011550003268
:011551003267
:011552003266
:09101E00043C0000000001400048
:100BBF00D2A3D2A6D2A743B4C8D2A3D2A6D2A7E4B7
:100BCF00F598C2AC90E672E04408F075C0C0D2DF71
:100BDF00C2AE438E1053890F438920758DC6758B16
:090BEF00C6C2ABD28E1214C8225A
:100EC9008E318F328C338D34E4FFFEFDFCAB3FAAAB
:100ED9003EA93DA83CD31208634069AE33AF34E460
:100EE900FCFDA83C1208634021AE33AF34AB07AA1E
:100EF90006E4E53F9BF53FE53E9AF53EE53D940066
:100F0900F53DE53C9400F53C800F853E33853F3443
:100F1900E4F53FF53EF53DF53CE531F59AAE31E5B1
:100F290032F59BD299E5341534AE33700215334E40
:100F3900600D3099FDC29990E67BE0F59980E63025
:050F490099FDC2992290
:1006CA0090E6B8E06440600302077190E691748096
:1006DA00F0000000F0000000F0000000F000000050
:1006EA00E490E68AF000000090E68BF0000000E556
:1006FA00BA20E0FB90E741E0FF7E007C017D00121A
:10070A00088AAB07AA06A905A80490E740E0FFE417
:10071A00EF2BFFE43AFEE439FDE438FCC004C005DF
:10072A00C006C00790E742E0FFE4FCFDFEFBFA7951
:10073A0001F8120814D003D002D001D000EB2FF533
:10074A003FEA3EF53EE93DF53DE83CF53CD2A730AF
:10075A00A2FDC2A37F011214EF20A2FDD2A330A2F0
:10076A00FD7F021214EF2290E6B8E064C0704BE5F8
:10077A00BA20E0FB90E7407407F0E4F53130A107B6
:10078A00E490E740F0800E7F641214EF0531E53102
:10079A00C394C840E890E6917480F0000000F0002D
:1007AA000000F0000000F0000000E490E68AF0008B
:0A07BA00000090E68B04F000000040
:0107C4002212
:1014910090E6B8E0B4400B90E6BAE06003C2A72240
:0314A100D2A722AD
:1013EC00C2A6C29CC299EF547FF5993099FDC2995F
:0A13FC008D993099FDC299D2A62206
:10137700C2A6C29CC299EF4480F5993099FDC299E3
:0F138700C298D29C3098FDAF99C29CC298D2A652
:011396002234
:1008B70090E6BAE0FA90E6BFE0FE90E6BEE07C0084
:1008C7002400F532EC3EF53190E6B8E0644070550F
:1008D700D3E5329400E53164809480500302099196
:1008E700E490E68AF000000090E68BF0000000E557
:1008F700BA20E0FB90E68BE0FBE4F9E9C39B5015D7
:10090700AF02744029F582E434E7F583E0FD121362
:10091700EC0A0980E6EBFFC3E5329FF532E5319437
:1009270000F53180AB90E6B8E064C0705DD3E53286
:100937009400E531648094804050E5BA20E0FBC321
:10094700E5329440E531648094805004AB328002F4
:100957007B40E4F9E9C39B5015AF0212137774404B
:1009670029F582E434E7F583EFF00A0980E6E4909D
:10097700E68AF000000090E68BEBF0FFC3E5329FBC
:0A098700F532E5319400F53180A34C
:010991002243
:1014360090E6B8E0B440107D017F011213ECD205AE
:081446007FE87E0312139722D8
:10126E0090E6B8E064407028E5BB20E70F90E6F505
:10127E0074FFF0C205C2047F051214EF90E60474E9
:10128E0080F00000007406F0000000E4F0000000A2
:01129E00222D
:100A5B0090E6B8E06440705890E68AF00000009091
:100A6B00E68BF0000000E5BA20E0FB90E68BE0F5AA
:100A7B0032C2C4C2AEC2C1E4F531E531C3953250C6
:100A8B002574402531F582E434E7F583E0F533FF37
:100A9B001214D692C38533C130C1FDC2C17FB412CB
:100AAB0014EF053180D4D2C4C2C0D2AEE4F54022DB
:100ABB0090E6B8E064C0705D90E6BEE0F532E5BA52
:100ACB0020E0FBE4F531E531C39540501E74002561
:100ADB0031F582E43420F583E0FF74402531F58253
:100AEB00E434E7F583EFF0053180DBE531C3953274
:100AFB00501174402531F582E434E7F583E4F005B9
:100B0B003180E8E490E68AF000000090E68BE53255
:050B1B00F0C2C4C2AEEF
:010B200022B2
:100FC30090E6B8E06440704E90208074A3F0A37460
:100FD30011F0A374CBF07E207F837B107D107C0007
:100FE30012110AC2C4C2AEC2C1E4F5317480253104
:100FF300F582E43420F583E0F532FF1214D692C370
:101003008532C130C1FDC2C17FB41214EF0531E591
:0610130031C3941340D626
:0110190022B4
:0B14EF000000000000000000DFF622FB
:0E14C800E4F5C8F5CBF5CAF5CDF5CCC2AD22E2
:10139700AD07AC06ED7802C333CE33CED8F9FFC321
:0D13A700E49FFDE49EFCF5CD8DCCD2CA2262
:0B14FA0030CF06C2CAC2CFD322C322EB
:0D14D600E4FEEF60060E14520780F7EE13DF
:0114E30022E6
:03003B000212CEE0
:1012CE00C0E0C083C082C0D030C019E540C3944096
:1012DE00501074002540F582E43420F583E5C1F00A
:0D12EE000540C2C0D0D0D082D083D0E03205
:1010270060202040010101010101010700000000CB
:101037000000000007070707070707070000000071
:101047000000003F60202060010A0901010101073B
:101057000001030202020200060604040404040756
:08106700007009000000003FC9
:1009920090E60174EAF090E6F574FFF090E6F374E5
:1009A20080F0E490E6C3F090E6C1F090E6C27407EE
:1009B200F090E6C074E4F075AF077420F59A7460A5
:1009C200F59B759DE4E4F59EFD90E67BE090E67C68
:1009D200F00DBD20F47420F59A7440F59B759DE4EA
:1009E200759E20E4FD90E67BE090E67CF00DBD2054
:1009F200F47420F59A7440F59B759DE4759E40E46D
:100A0200FD90E67BE090E67CF00DBD20F47420F5CD
:100A12009A7440F59B759DE4759E60E4FD90E67BBB
:100A2200E090E67CF00DBD20F4000000E490E6C406
:100A3200F000000090E6C5F090E6C6F090E6C7F040
:100A420090E6C8F090E6C9F090E6CAF090E6CBF0E6
:080A520090E6CCF090E6CDF037
:010A5A002279
:1012FB0090E682E030E004E020E60B90E682E030FE
:10130B00E119E030E71590E680E04401F07F147EB0
:0C131B000012115390E680E054FEF02216
:10129F0030060990E680E0440AF0800790E680E08F
:1012AF004408F07FDC7E0512115390E65D74FFF069
:0F12BF0090E65FF05391EF90E680E054F7F02255
:08151700E4F51BD2E9D2AF227A
:10119900AD0790E678E020E6F9C2E990E678E04408
:1011A90080F0ED25E090E679F090E678E030E0F91E
:1011B90090E678E04440F090E678E020E6F990E6A1
:0811C90078E030E1D6D2E92202
:10123C00AC0790E678E020E6F9E51B702390E678A1
:10124C00E04480F0EC25E090E679F08D16AF03A930
:10125C00077517018A188919E4F51A751B01D32231
:02126C00C3229B
:10120800AC0790E678E020E6F9E51B702590E678D3
:10121800E04480F0EC25E0440190E679F08D16AFCB
:1012280003A9077517018A188919E4F51A751B03AC
:04123800D322C322D8
:03004B000205C2E9
:1005C200C0E0C083C082C085C084C086758600C07A
:1005D200D075D000C000C001C002C003C006C00771
:1005E20090E678E030E206751B060206AC90E678EB
:1005F200E020E10CE51B64026006751B070206ACF5
:10060200E51B24FE605F14603624FE700302069D23
:1006120024FC70030206A9240860030206ACAB178F
:10062200AA18A919AF1A051A8F827583001207C575
:1006320090E679F0E51A65167070751B05806B906F
:10064200E679E0AB17AA18A919AE1A8E8275830053
:100652001207F2751B02E5166401704E90E678E00F
:100662004420F08045E51624FEB51A0790E678E0AE
:100672004420F0E51614B51A0A90E678E04440F0FA
:10068200751B0090E679E0AB17AA18A919AE1A8E6D
:10069200827583001207F2051A800F90E678E04413
:1006A20040F0751B008003751B005391DFD007D00B
:1006B20006D003D002D001D000D0D0D086D084D0D2
:0806C20085D082D083D0E03224
:02132700A90714
:10132900AE14AF158F828E83A3E064037017AD01ED
:1013390019ED7001228F828E83E07C002FFDEC3E37
:08134900FEAF0580DFE4FEFFAA
:011351002279
:1013B400121208E51B24FA600E146006240770F369
:0C13C400D322E4F51BD322E4F51BD32256
:1013D00012123CE51B24FA600E146006240770F319
:0C13E000D322E4F51BD322E4F51BD3223A
:1013520090E682E044C0F090E681F043870100000D
:041362000000002265
:101153008E318F3290E600E054187012E53224018C
:10116300FFE43531C313F531EF13F532801590E603
:1011730000E05418FFBF100BE53225E0F532E531EE
:1011830033F531E5321532AE31700215314E60055B
:0611930012136680EE223B
:101366007400F58690FDA57C05A3E582458370F99A
:011376002254
:03004300020C00AC
:03005300020C009C
:100C00000214060002147B000214650002141E0088
:100C1000020F4E00020CB80002152F000215300022
:100C2000021531000215320002153300021534009E
:100C3000021535000215360002153700021538007E
:100C4000021539000215300002153A0002153B006A
:100C500002153C0002153D0002153E0002153F0042
:100C60000215400002153000021530000215300058
:100C7000021541000215420002154300021544000E
:100C800002154500021546000215470002154800EE
:100C90000215490002154A0002154B0002154C00CE
:100CA00002154D0002154E0002154F0002155000AE
:080CB00002155100021552006B
:03000000020DB23C
:0C0DB200787FE4F6D8FD758140020DF951
:1007C500BB010CE58229F582E5833AF583E02250E9
:1007D50006E92582F8E622BBFE06E92582F8E22233
:0D07E500E58229F582E5833AF583E493224D
:1007F200F8BB010DE58229F582E5833AF583E8F03D
:10080200225006E92582C8F622BBFE05E92582C8E8
:02081200F222D0
:10081400E88FF0A4CC8BF0A42CFCE98EF0A42CFC83
:100824008AF0EDA42CFCEA8EF0A4CDA8F08BF0A401
:100834002DCC3825F0FDE98FF0A42CCD35F0FCEB60
:100844008EF0A4FEA9F0EB8FF0A4CFC5F02ECD3925
:0F085400FEE43CFCEAA42DCE35F0FDE43CFC2292
:10086300EB9FF5F0EA9E42F0E99D42F0EC6480C80C
:0608730064809845F022AC
:10087900EB9FF5F0EA9E42F0E99D42F0E89C45F0D5
:01088900224C
:10088A00EC8EF0A4CCC5F0CCCDF8EFA4CEC5F02DFB
:10089A00FDE43CFCE8A42EC8C5F03DFDE43CFCEFB9
:0D08AA00A4FFE5F028FEE43DFDE43CFC2247
:100DBE0002033CE493A3F8E493A34003F68001F20C
:100DCE0008DFF48029E493A3F85407240CC8C33336
:100DDE00C4540F4420C8834004F456800146F6DF05
:100DEE00E4800B010204081020408090101AE47E6B
:100DFE00019360BCA3FF543F30E509541FFEE493FA
:100E0E00A360010ECF54C025E060A840B8E493A3C0
:100E1E00FAE493A3F8E493A3C8C582C8CAC583CAEB
:100E2E00F0A3C8C582C8CAC583CADFE9DEE780BEA3
:01106F000080
:00000001FF
